:100000000C94F6030C9422040C9422040C94220405
:100010000C9422040C9422040C9422040C942204C8
:100020000C9422040C9422040C9422040C942204B8
:100030000C9422040C9422040C9422040C942204A8
:100040000C9422040C9422040C9422040C94220498
:100050000C9422040C9422040C9422040C94890E17
:100060000C9422040C94B0100C9490110C94220463
:100070000C9422040C9422040C9422040C94220468
:100080000C9422040C9422040C9422040C94220458
:100090000C94E8100C94CF110C9422040C942204BC
:1000A0000C9422040C9422040C9422040C94220438
:1000B0000C9422040C9422040C9422040C94220428
:1000C0000C9422040C9422040C9422040C9420110D
:1000D0000C940E120C9422040C9458110C944D1292
:1000E0000C94220400002100240027002A002D0087
:1000F0003000330001010000040107010A01000083
:100100002200250028002B002E00310034000201BF
:100110000000050108010B0100002000230026005B
:1001200029002C002F00320000010000030106010D
:10013000090105050505070508080808020202026D
:100140000A0A080804040404010101010101010173
:100150000303030303030303040707070C0C0C0C3E
:100160000C0C0C0C02020202060606060606060627
:100170000B0B0B0B0B0B0B0B0102102020080810B4
:100180002040102040800201020108040201010207
:1001900004081020408080402010080402018004E0
:1001A000020180402010080402010804020101023B
:1001B0000408102040800102040810204080000044
:1001C000090A02080B0C0D070603040100000000D9
:1001D000000000000000000000000000000000001F
:1001E0000000000000000000000011100F000000DF
:1001F00000000000000000000000000000000000FF
:100200000000000000000000003E5B4F5B3E3E6BC4
:100210004F6B3E1C3E7C3E1C183C7E3C181C577DA0
:10022000571C1C5E7F5E1C00183C1800FFE7C3E7EC
:10023000FF0018241800FFE7DBE7FF30483A060EFE
:100240002629792926407F050507407F05253F5A45
:100250003CE73C5A7F3E1C1C08081C1C3E7F1422B5
:100260007F22145F5F005F5F06097F017F00668960
:10027000956A606060606094A2FFA29408047E04A6
:100280000810207E201008082A1C08081C2A0808CC
:100290001E101010100C1E0C1E0C30383E3830068C
:1002A0000E3E0E06000000000000005F0000000788
:1002B000000700147F147F14242A7F2A12231308B6
:1002C000646236495620500008070300001C224192
:1002D000000041221C002A1C7F1C2A08083E080836
:1002E00000807030000808080808000060600020E6
:1002F000100804023E5149453E00427F40007249C9
:100300004949462141494D331814127F102745456C
:1003100045393C4A49493141211109073649494982
:1003200036464949291E00001400000040340000F0
:100330000008142241141414141400412214080259
:10034000015909063E415D594E7C1211127C7F49CC
:100350004949363E414141227F4141413E7F494921
:1003600049417F090909013E414151737F0808084D
:100370007F00417F41002040413F017F081422411E
:100380007F404040407F021C027F7F0408107F3E78
:100390004141413E7F090909063E4151215E7F09E5
:1003A000192946264949493203017F01033F40404C
:1003B000403F1F2040201F3F4038403F6314081437
:1003C0006303047804036159494D43007F4141416F
:1003D0000204081020004141417F04020102044050
:1003E00040404040000307080020545478407F28D4
:1003F0004444383844444428384444287F385454CA
:10040000541800087E090218A4A49C787F080404EC
:100410007800447D40002040403D007F102844008B
:1004200000417F40007C047804787C08040478381C
:1004300044444438FC1824241818242418FC7C084C
:10044000040408485454542404043F44243C4040C9
:10045000207C1C2040201C3C4030403C442810287C
:10046000444C9090907C4464544C440008364100C5
:100470000000770000004136080002010204023C3F
:100480002623263C1EA1A161123A4040207A38540E
:100490005455592155557941215454784121555489
:1004A000784020545579400C1E52721239555555DA
:1004B00059395454545939555454580000457C41C5
:1004C0000002457D420001457C40F0292429F0F0DE
:1004D000282528F07C545545002054547C547C0A2F
:1004E000097F4932494949323248484832324A48FC
:1004F00048303A4141217A3A42402078009DA0A0FC
:100500007D39444444393D4040403D3C24FF24244F
:10051000487E4943662B2FFC2F2BFF0929F620C06C
:10052000887E090320545479410000447D413048BD
:10053000484A32384040227A007A0A0A727D0D1900
:10054000317D2629292F28262929292630484D4062
:1005500020380808080808080808382F10C8ACBA5E
:100560002F102834FA00007B000008142A142222DD
:10057000142A1408AA005500AAAA55AA55AA0000D0
:1005800000FF00101010FF00141414FF001010FFE3
:1005900000FF1010F010F0141414FC001414F700F5
:1005A000FF0000FF00FF1414F404FC141417101FC4
:1005B00010101F101F1414141F00101010F0000052
:1005C00000001F101010101F10101010F01000006D
:1005D00000FF101010101010101010FF100000007D
:1005E000FF140000FF00FF00001F10170000FC04B4
:1005F000F414141710171414F404F40000FF00F797
:1006000014141414141414F700F7141414171410F9
:10061000101F101F141414F4141010F010F0000028
:100620001F101F0000001F14000000FC140000F049
:1006300010F01010FF10FF141414FF141010101FEE
:1006400000000000F010FFFFFFFFFFF0F0F0F0F0FF
:10065000FFFFFF0000000000FFFF0F0F0F0F0F381C
:10066000444438447C2A2A3E147E02020606027E56
:10067000027E0263554941633844443C04407E2075
:100680001E2006027E020299A5E7A5991C2A492A86
:100690001C4C7201724C304A4D4D30304878483015
:1006A000BC625A463D3E494949007E0101017E2A0D
:1006B0002A2A2A2A44445F444440514A4440404440
:1006C0004A51400000FF0103E080FF000008086B72
:1006D0006B083612362436060F090F06000018186C
:1006E0000000001010003040FF0101001F01011E3A
:1006F00000191D1712003C3C3C3C00000000000F9C
:100700000180961180FFB103012C2DB203012C2D25
:10071000B306012C2D012C2DB40107C003A20284C5
:10072000C101C5C2020A00C3028A2AC4028AEEC5F8
:10073000010E20003601C83A0105022A0400020019
:10074000812B04000100A0022A040000007F2B047A
:100750000000009F04E010021C07123732292D29E7
:10076000252B3900010310E110031D07062E2C294B
:100770002D2E2E373F0000021013800A29806412AC
:100780000180321180FF3A81050AB1830006030A15
:10079000360108B6021502B40100C08202700AC117
:1007A0000105C2020102C5823C380AFC021115E0B3
:1007B0001009160920211B131917151E2B040502F9
:1007C0000EE1900B14081E221D181E1B1A242B0666
:1007D00006020F0A2A04000200812B040002008195
:1007E00013800A2980FF2404B713CC1C11241FBED8
:1007F000CFEFD1E2DEBFCDBF00E00CBF12E0A0E042
:10080000B2E0E0E9FCE400E00BBF02C007900D920B
:10081000A43CB107D9F71FE1A4ECB2E001C01D92DE
:10082000AB36B107E1F717E0CCEED7E004C0229772
:10083000FE010E944226C63ED107C9F70E94460E1D
:100840000C94BA250C94000084EC92E066E047E03A
:1008500028E00E94AB1C0895EF92FF920F931F9324
:10086000CF93DF930E94AA256CE770E00E94F025E9
:10087000880F991F880F991F6CE770E00E94F02580
:100880007C010E94AA256CE970E00E94F025880F87
:10089000991F880F991F60E970E00E94F025EC0114
:1008A0008C01C70101978B37910578F00E94AA252A
:1008B0006CE770E00E94F025880F991F880F991F40
:1008C0006CE770E00E94F0257C012197CF38D105BC
:1008D00048F10E94AA2560E970E019C0E216F3060B
:1008E000E9F70817190751F50E94AA256CE770E08F
:1008F0000E94F025880F991F880F991F6CE770E000
:100900000E94F0257C010E94AA256CE970E00E94FB
:10091000F025880F991F880F991F60E970E00E94E9
:10092000F0258C014091F6025091F70220910003CE
:10093000309101038091FE029091FF0248305105F1
:100940006CF6B801C701DF91CF911F910F91FF9015
:10095000EF9008952F923F924F925F926F927F9205
:100960008F929F92AF92BF92CF92DF92EF92FF92BF
:100970000F931F93DF93CF93CDB7DEB7A0970FB63A
:10098000F894DEBF0FBECDBF2DB73EB73E8B2D8B8B
:1009900021E030E03093F5022093F4021092F3024C
:1009A0001092F20280E490E09093FB028093FA02AE
:1009B00080E590E09093F9028093F8023093FD0275
:1009C0002093FC0280E00E94550E9C878B8781E07B
:1009D0000E94550E9A87898784EC92E062E00E941B
:1009E0007D1C84EC92E060E070E040E050E020E8A4
:1009F00030E000EA10E0EE24FF240E94F21A0E9488
:100A00002C047C836B839A83898388E090E0988BA5
:100A10008F87EB85FC853A97FA8FE98F2B853C858C
:100A2000265F3F4F3C8F2B8F89859A850A979E8F33
:100A30008D8FE985FA853A96F8A3EF8FFDB7FF8B86
:100A40002EB7288F84EC92E060E070E043E950E03C
:100A500020E830E00DE010E0EE24EA94FE2C0E9445
:100A6000F21A84EC92E063E070E046E950E00E9404
:100A70000D1984EC92E060E070E00E94191984EC9A
:100A800092E060E072E00E940A166091F2027091BA
:100A9000F30284EC92E04AE050E00E94D81584EC26
:100AA00092E069817A814B815C8124E030E004E04E
:100AB00010E0BFEFEB2EF12C0E94F21A80E00E94B2
:100AC000550E7C0181E00E94550E8C0189E00E9448
:100AD00080108B859C85E816F90639F0F886EF8240
:100AE000E985FA85FE83ED830BC029853A850217D7
:100AF000130731F08B859C8598878F831E830D8328
:100B0000EF85F889F595E795F595E795FC8BEB8BE7
:100B10003197FA8BE98B8B899C89880F991F2DB7A8
:100B20003EB7281B390B0FB6F8943EBF0FBE2DBF42
:100B30006DB67EB60894611C711CEDB7FEB7E81B5C
:100B4000F90B0FB6F894FEBF0FBEEDBF4DB65EB603
:100B50000894411C511C8091FC029091FD0281304F
:100B6000910509F0A0C1E8EF2E2EE2E03E2ED10162
:100B700040E050E020E030E016C0F301E20FF31F48
:100B800012968D919C91139791838083F201E20FCD
:100B9000F31F8D919C911197918380834F5F5F4FDD
:100BA00016962E5F3F4F8B899C89481759072CF367
:100BB0004091F8025091F902445050405093F9028C
:100BC0004093F8026091FA027091FB0284EC92E08B
:100BD00024E030E004E010E0EE24EA94FE2C0E94D1
:100BE000F21A78EFA72E72E0B72E88249924CC242D
:100BF000DD2422C00894811C911CF301EC0DFD1D25
:100C000060817181F50173836283F201EC0DFD1D3A
:100C100040815181F5015183408384EC92E024E0CE
:100C200030E004E010E0EE24EA94FE2C0E94F21A78
:100C300022E030E0C20ED31E86E090E0A80EB91E7E
:100C4000E989FA898E169F06ACF2EE0FFF1FD301D9
:100C5000AE0FBF1F6D917C91E40DF51D4081518158
:100C600084EC92E024E030E004E010E0EE24FF2485
:100C70000E94F21A2D813E818D8D9E8D2817390795
:100C80000CF065C0EF81F8852B853C85E217F307F2
:100C900009F05DC0AA24BB24CC24DD2422C0089422
:100CA000A11CB11CF301EC0DFD1D60817181F101EE
:100CB00073836283F201EC0DFD1D40815181F101CE
:100CC0005183408384EC92E024E030E004E010E0C3
:100CD000EE24EA94FE2C0E94F21A22E030E0C20ECA
:100CE000D31E86E090E0280E391EE989FA89AE16F7
:100CF000BF06ACF20EEF12E051E0E52EF12C1BC066
:100D0000F8018281938104962091FA023091FB02CE
:100D10002817390759F42091F8023091F90280819F
:100D200091812817390711F40E94E00C0894E11C06
:100D3000F11C0A5F1F4F2B893C89E216F30604F36E
:100D400083E090E09093FD028093FC0281C58D8149
:100D50009E81EF8DF8A1E817F9070CF079C52F8176
:100D600038858B859C852817390709F071C5AA2419
:100D7000BB24CC24DD2422C00894A11CB11CF301A7
:100D8000EC0DFD1D60817181F10173836283F201BD
:100D9000EC0DFD1D40815181F1015183408384ECB4
:100DA00092E024E030E004E010E0EE24EA94FE2C2F
:100DB0000E94F21A22E030E0C20ED31E86E090E0DC
:100DC000280E391EE989FA89AE16BF06ACF24EEF3D
:100DD000C42E42E0D42E860131E0E32EF12C1BC05C
:100DE0008091FA029091FB020496F80122813381EE
:100DF0008217930759F42091F8023091F90280810B
:100E000091812817390711F40E94E00C0894E11C25
:100E1000F11C0A5F1F4F2B893C89E216F30604F38D
:100E200001E010E01CC0F6018081918104962091C0
:100E3000F8023091F9022817390759F42091FA0283
:100E40003091FB02828193812817390711F40E94A7
:100E5000E00C0F5F1F4F26E030E0C20ED31E8B89DF
:100E60009C8908171907FCF284E090E09093FD023A
:100E70008093FC0289899A89880F991F680E791ED0
:100E8000F30160817181480E591EF2014081518148
:100E900084EC92E024E030E004E010E0EE24FF2453
:100EA0000E94F21AD5C48230910509F099C188EFE9
:100EB000282E82E0382ED10140E050E020E030E0E2
:100EC00016C0F301E20FF31F12968D919C911397B8
:100ED00091838083F201E20FF31F8D919C91119712
:100EE000918380834F5F5F4F16962E5F3F4F8B89B4
:100EF0009C89481759072CF34091F8025091F90248
:100F00004C5F5F4F5093F9024093F8026091FA02F0
:100F10007091FB0284EC92E024E030E004E010E009
:100F2000EE24EA94FE2C0E94F21A08EFA02E02E0B2
:100F3000B02E88249924CC24DD2422C00894811C5E
:100F4000911CF301EC0DFD1D60817181F50173832E
:100F50006283F201EC0DFD1D40815181F501518349
:100F6000408384EC92E024E030E004E010E0EE24E2
:100F7000EA94FE2C0E94F21A22E030E0C20ED31E48
:100F800086E090E0A80EB91EE989FA898E169F06C0
:100F9000ACF2EE0FFF1FD301AE0FBF1F6D917C911E
:100FA000E40DF51D4081518184EC92E024E030E0B5
:100FB00004E010E0EE24FF240E94F21A2D813E810D
:100FC0008D8D9E8D281739070CF082C0EF81F88532
:100FD0002B853C85E217F30709F07AC0AA24BB24CD
:100FE000CC24DD2422C00894A11CB11CF301EC0D1B
:100FF000FD1D60817181F10173836283F201EC0D4B
:10100000FD1D40815181F1015183408384EC92E0C8
:1010100024E030E004E010E0EE24EA94FE2C0E948C
:10102000F21A22E030E0C20ED31E86E090E0280ED5
:10103000391EE989FA89AE16BF06ACF20EEF12E04E
:10104000B1E0EB2EF12C1BC0F80182819381049654
:101050002091FA023091FB022817390759F42091A8
:10106000F8023091F902808191812817390711F433
:101070000E94E00C0894E11CF11C0A5F1F4F2B89B1
:101080003C89E216F30604F383E090E09093FD02BE
:101090008093FC0289899A89880F991F680E791EAE
:1010A000F30160817181480E591EF2014081518126
:1010B00084EC92E024E030E004E010E0EE24FF2431
:1010C0000E94F21A0EEF12E0F1E0EF2EF12C82C036
:1010D0002D813E818F8D98A1821793079CF7EF8118
:1010E000F8852B853C85E217F30761F7AA24BB241A
:1010F000CC24DD2422C00894A11CB11CF301EC0D0A
:10110000FD1D60817181F10173836283F201EC0D39
:10111000FD1D40815181F1015183408384EC92E0B7
:1011200024E030E004E010E0EE24EA94FE2C0E947B
:10113000F21A22E030E0C20ED31E86E090E0280EC4
:10114000391EE989FA89AE16BF06ACF20EEF12E03D
:10115000E1E0EE2EF12C1BC08091FA029091FB028F
:101160000496F801228133818217930759F4209164
:10117000F8023091F902808191812817390711F422
:101180000E94E00C0894E11CF11C0A5F1F4F2B89A0
:101190003C89E216F30604F384E090E077CF809177
:1011A000F8029091F9020496F801208131818217AA
:1011B000930759F42091FA023091FB0282819381C6
:1011C0002817390711F40E94E00C0894E11CF11C67
:1011D0000A5F1F4F2B893C89E216F30604F338C3DC
:1011E0008330910509F099C178EF272E72E0372EF0
:1011F000D10140E050E020E030E016C0F301E20F02
:10120000F31F12968D919C91139791838083F20125
:10121000E20FF31F8D919C911197918380834F5F13
:101220005F4F16962E5F3F4F8B899C894817590751
:101230002CF36091FA027091FB026450704070933D
:10124000FB026093FA024091F8025091F90284EC9B
:1012500092E024E030E004E010E0EE24EA94FE2C7A
:101260000E94F21A68EFA62E62E0B62E8824992416
:10127000CC24DD2422C00894811C911CF301EC0DC8
:10128000FD1D60817181F50173836283F201EC0DB4
:10129000FD1D40815181F5015183408384EC92E032
:1012A00024E030E004E010E0EE24EA94FE2C0E94FA
:1012B000F21A22E030E0C20ED31E86E090E0A80EC3
:1012C000B91EE989FA898E169F06ACF2EE0FFF1F50
:1012D000D301AE0FBF1F6D917C91E40DF51D4081D0
:1012E000518184EC92E024E030E004E010E0EE2450
:1012F000FF240E94F21A2F813885898D9A8D281734
:1013000039070CF082C0ED81FE8129853A85E2170C
:10131000F30709F07AC0AA24BB24CC24DD2422C020
:101320000894A11CB11CF301EC0DFD1D60817181BD
:10133000F10173836283F201EC0DFD1D4081518147
:10134000F1015183408384EC92E024E030E004E03A
:1013500010E0EE24EA94FE2C0E94F21A22E030E023
:10136000C20ED31E86E090E0280E391EE989FA8964
:10137000AE16BF06ACF20EEF12E041E0E42EF12C07
:101380001BC0F8018081918104962091F802309170
:10139000F9022817390759F42091FA023091FB021B
:1013A000828193812817390711F40E94E00C089478
:1013B000E11CF11C0A5F1F4F2B893C89E216F306E2
:1013C00004F381E090E09093FD028093FC02898910
:1013D0009A89880F991F680E791EF30160817181C7
:1013E000480E591EF2014081518184EC92E024E0C4
:1013F00030E004E010E0EE24FF240E94F21A0EEF29
:1014000012E021E0E22EF12C82C02F8138858B8DF5
:101410009C8D821793079CF7ED81FE8129853A8583
:10142000E217F30761F7AA24BB24CC24DD2422C0F1
:101430000894A11CB11CF301EC0DFD1D60817181AC
:10144000F10173836283F201EC0DFD1D4081518136
:10145000F1015183408384EC92E024E030E004E029
:1014600010E0EE24EA94FE2C0E94F21A22E030E012
:10147000C20ED31E86E090E0280E391EE989FA8953
:10148000AE16BF06ACF20EEF12E091E0E92EF12CA1
:101490001BC08091F8029091F9020496F801208116
:1014A00031818217930759F42091FA023091FB029F
:1014B000828193812817390711F40E94E00C089467
:1014C000E11CF11C0A5F1F4F2B893C89E216F306D1
:1014D00004F382E090E077CFF80182819381049653
:1014E0002091FA023091FB022817390759F4209114
:1014F000F8023091F902808191812817390711F49F
:101500000E94E00C0894E11CF11C0A5F1F4F2B891C
:101510003C89E216F30604F39BC1049709F09EC1CF
:1015200088EF282E82E0382ED10140E050E020E004
:1015300030E016C0F301E20FF31F12968D919C91DB
:10154000139791838083F201E20FF31F8D919C9199
:101550001197918380834F5F5F4F16962E5F3F4FA9
:101560008B899C89481759072CF36091FA02709176
:10157000FB026C5F7F4F7093FB026093FA02409115
:10158000F8025091F90284EC92E024E030E004E0AB
:1015900010E0EE24EA94FE2C0E94F21A08EFA02E2E
:1015A00002E0B02E88249924CC24DD2422C00894A3
:1015B000811C911CF301EC0DFD1D60817181F50111
:1015C00073836283F201EC0DFD1D40815181F501B1
:1015D0005183408384EC92E024E030E004E010E0AA
:1015E000EE24EA94FE2C0E94F21A22E030E0C20EB1
:1015F000D31E86E090E0A80EB91EE989FA898E16FE
:101600009F06ACF2EE0FFF1FD301AE0FBF1F6D910F
:101610007C91E40DF51D4081518184EC92E024E041
:1016200030E004E010E0EE24FF240E94F21A2F8143
:101630003885898D9A8D281739070CF082C0ED8185
:10164000FE8129853A85E217F30709F07AC0AA24BA
:10165000BB24CC24DD2422C00894A11CB11CF301BE
:10166000EC0DFD1D60817181F10173836283F201D4
:10167000EC0DFD1D40815181F1015183408384ECCB
:1016800092E024E030E004E010E0EE24EA94FE2C46
:101690000E94F21A22E030E0C20ED31E86E090E0F3
:1016A000280E391EE989FA89AE16BF06ACF20EEF94
:1016B00012E0B1E0EB2EF12C1BC0F801808191818A
:1016C00004962091F8023091F9022817390759F44D
:1016D0002091FA023091FB02828193812817390709
:1016E00011F40E94E00C0894E11CF11C0A5F1F4FEA
:1016F0002B893C89E216F30604F381E090E0909395
:10170000FD028093FC0289899A89880F991F680ECF
:10171000791EF30160817181480E591EF2014081EA
:10172000518184EC92E024E030E004E010E0EE240B
:10173000FF240E94F21A0EEF12E0F1E0EF2EF12CDE
:1017400082C02F8138858B8D9C8D821793079CF7E3
:10175000ED81FE8129853A85E217F30761F7AA2416
:10176000BB24CC24DD2422C00894A11CB11CF301AD
:10177000EC0DFD1D60817181F10173836283F201C3
:10178000EC0DFD1D40815181F1015183408384ECBA
:1017900092E024E030E004E010E0EE24EA94FE2C35
:1017A0000E94F21A22E030E0C20ED31E86E090E0E2
:1017B000280E391EE989FA89AE16BF06ACF20EEF83
:1017C00012E0E1E0EE2EF12C1BC08091F802909126
:1017D000F9020496F801208131818217930759F4A8
:1017E0002091FA023091FB028281938128173907F8
:1017F00011F40E94E00C0894E11CF11C0A5F1F4FD9
:101800002B893C89E216F30604F382E090E077CF5F
:101810008091FA029091FB020496F80122813381B3
:101820008217930759F42091F8023091F9028081D0
:1018300091812817390711F40E94E00C0894E11CEB
:10184000F11C0A5F1F4F2B893C89E216F30604F353
:1018500064E170E080E090E00E94DF0E8091FA0287
:101860009091FB02E981FA81E817F907E9F4809188
:10187000F8029091F9022B813C8128173907A1F4D5
:101880008F8598890496988B8F870E942C047C837F
:101890006B839A8389838091F2029091F30201967F
:1018A0009093F3028093F2028091FA029091FB02EE
:1018B000009761F08038910549F08091F80290918D
:1018C000F902009719F08039910551F50E94E00C5A
:1018D0008F89988D9C010FB6F8943EBF0FBE2DBF27
:1018E0002D893E890FB6F8943EBF0FBE2DBFA0963E
:1018F0000FB6F894DEBF0FBECDBFCF91DF911F9121
:101900000F91FF90EF90DF90CF90BF90AF909F909E
:101910008F907F906F905F904F903F902F900895A1
:10192000ED85FE857F979CF02091F2023091F302C5
:10193000C9016AE070E00E94F025265F3F4F821BDC
:10194000930B880F991F8C549F4F9E878D872D85F1
:101950003E852E31310524F48EE190E09E878D87FF
:10196000ED85FE85BF01882777FD8095982F0E9421
:10197000DF0E81E99CE168E072E00E940A1681E9CD
:101980009CE16D857E854AE050E00E94D81581E992
:101990009CE16FE072E00E940A166091F202709181
:1019A000F30281E99CE14AE050E00E94EB152F89A7
:1019B000388DC9010FB6F8949EBF0FBE8DBF3EC8CB
:1019C000EF92FF920F931F938091740260E00E9448
:1019D0009A0F8091740261E00E944D1064EF71E0F3
:1019E00080E090E00E94DF0E84EC92E060E070E026
:1019F00040E050E020E830E000EA10E0EE24FF2470
:101A00000E94F21A84EC92E06AE070E04FE050E04D
:101A10000E940D1984EC92E060EE77E00E941919A3
:101A200084EC92E062E00E94131984EC92E066E19B
:101A300072E00E940D1684EC92E069E270E04CE3E3
:101A400050E00E940D1984EC92E061E00E941319AD
:101A500084EC92E060E078EF0E94191984EC92E047
:101A600060E272E00E940A166091F2027091F30245
:101A700084EC92E04AE050E00E94EB1584EC92E0A6
:101A800063E270E045E550E02AE330E00DE010E06D
:101A9000EE24EA94FE2C0E94F21A84EC92E066E2B4
:101AA00070E048E550E00E940D1984EC92E060E09F
:101AB00070E00E94191984EC92E061E00E94131911
:101AC00084EC92E068E272E00E940D1684EC92E0F1
:101AD00064E170E046E650E00E940D1984EC92E06B
:101AE00060E078EF0E94191984EC92E061E00E94B6
:101AF000131984EC92E062E372E00E940D1684EC0C
:101B000092E068E270E04FE650E00E940D1984EC2C
:101B100092E061E00E94131984EC92E062E472E0CA
:101B20000E940D16809174020E9480109093F10221
:101B30008093F002892BB1F70E94AA04F3CFEF92B1
:101B4000FF920F931F938091740260E00E949A0F9E
:101B50008091740261E00E944D1084EC92E062E09A
:101B60000E947D1C84EC92E060E070E040E050E078
:101B700020E830E000EA10E0E1E1EE2EE8E8FE2E99
:101B80000E94F21A84EC92E06AE070E04AE050E0D1
:101B90002CE630E002E210E0EE24EA94FE2C0E94F3
:101BA000F21A84EC92E064E170E040E150E00E94BF
:101BB0000D1984EC92E061E178E80E94191984EC37
:101BC00092E063E00E94131984EC92E06BE472E00F
:101BD0000E940D1684EC92E06DE170E043E350E06A
:101BE0000E940D1984EC92E061E00E94131984ECCC
:101BF00092E06FEF7FEF0E94191984EC92E061E5AB
:101C000072E00E940D1684EC92E060E270E04EE318
:101C100050E00E940D1984EC92E06EE572E00E94A3
:101C20000A1684EC92E06EE270E04AE550E028E2A9
:101C300030E00DE010E00E94F21A84EC92E061E0E6
:101C40000E94131984EC92E061E178E80E9419196E
:101C500084EC92E064E370E04DE550E00E940D19E1
:101C600084EC92E06AE672E00E940A1680917402A7
:101C70000E9480109093F1028093F002892BB1F7BB
:101C80000E94AA0489E00E948010F0CF0E94380FC1
:101C900081E99CE140E855E260E070E00E948C122E
:101CA0000E949F0D80E090E00895382F863308F061
:101CB000365320917B00832F86958695869590E0FC
:101CC0008170907043E0880F991F4A95E1F7277F54
:101CD000282B20937B003770809176028295880FA5
:101CE000880F807C832B80937C0080917A008064B5
:101CF00080937A0080917A0086FDFCCF2091780055
:101D000040917900942F80E030E0282B392BC901D5
:101D100008951F920F920FB60F9211242F933F93A5
:101D20008F939F93AF93BF9380916C1A90916D1A8C
:101D3000A0916E1AB0916F1A3091701A0196A11D80
:101D4000B11D232F2D5F2D3720F02D570196A11D9A
:101D5000B11D2093701A80936C1A90936D1AA09302
:101D60006E1AB0936F1A8091681A9091691AA091B7
:101D70006A1AB0916B1A0196A11DB11D8093681A61
:101D80009093691AA0936A1AB0936B1ABF91AF919E
:101D90009F918F913F912F910F900FBE0F901F90A9
:101DA00018958FB7F89420916C1A30916D1A409164
:101DB0006E1A50916F1A8FBFB901CA0108959B0125
:101DC000AC017FB7F8948091681A9091691AA0913C
:101DD0006A1AB0916B1A66B5A89B05C06F3F19F0DF
:101DE0000196A11DB11D7FBFBA2FA92F982F88275B
:101DF000860F911DA11DB11D62E0880F991FAA1FBA
:101E0000BB1F6A95D1F7BC012DC0FFB7F894809134
:101E1000681A9091691AA0916A1AB0916B1AE6B586
:101E2000A89B05C0EF3F19F00196A11DB11DFFBF92
:101E3000BA2FA92F982F88278E0F911DA11DB11D94
:101E4000E2E0880F991FAA1FBB1FEA95D1F7861BF6
:101E5000970B885E9340C8F221503040404050407C
:101E600068517C4F211531054105510571F60895E2
:101E7000789484B5826084BD84B5816084BD85B565
:101E8000826085BD85B5816085BDEEE6F0E080812C
:101E900081608083E1E8F0E010828081826080834D
:101EA000808181608083E0E8F0E0808181608083D0
:101EB000E1EBF0E0808184608083E0EBF0E0808102
:101EC00081608083E1E9F0E08081826080838081AD
:101ED00081608083E0E9F0E0808181608083E1EAD5
:101EE000F0E0808182608083808181608083E0EA8D
:101EF000F0E0808181608083E1E2F1E080818260B6
:101F00008083808181608083E0E2F1E08081816074
:101F10008083EAE7F0E08081846080838081826052
:101F2000808380818160808380818068808310923B
:101F3000C1000895CF93DF93482F50E0CA0188581D
:101F40009E4FFC0134914E5C5E4FFA0184918823D0
:101F500069F190E0880F991FFC01EC51FF4FA591AA
:101F6000B491FC01E250FF4FC591D491662351F426
:101F70002FB7F8948C91932F909589238C93888117
:101F800089230BC0623061F42FB7F8948C91932FA2
:101F9000909589238C938881832B88832FBF06C0DB
:101FA0009FB7F8948C91832B8C939FBFDF91CF9137
:101FB0000895893009F449C08A30A0F4843051F181
:101FC000853040F4823079F1833000F5813009F0BA
:101FD00063C026C0873079F1883098F5863009F0E3
:101FE0005BC025C08D3009F442C08E3028F48B30A0
:101FF000B1F18C30C0F52DC0803109F442C081317F
:1020000009F445C08F3009F047C037C08091800087
:102010008F7703C0809180008F7D8093800008952A
:1020200084B58F7702C084B58F7D84BD089580917B
:10203000B0008F7703C08091B0008F7D8093B00097
:102040000895809190008F7707C0809190008F7DD8
:1020500003C080919000877F8093900008958091C5
:10206000A0008F7707C08091A0008F7D03C0809172
:10207000A000877F8093A0000895809120018F7732
:1020800003C0809120018F7D80932001089580916D
:102090002001877F809320010895FF920F931F9363
:1020A000F62E482F50E0CA0182549E4FFC01249125
:1020B000CA0188589E4FFC0114914E5C5E4FFA0194
:1020C00004910023C9F0222319F0822F0E94D90F16
:1020D000E02FF0E0EE0FFF1FE250FF4FA591B4910B
:1020E0009FB7F894FF2021F48C911095812302C0B2
:1020F0008C91812B8C939FBF1F910F91FF9008951E
:102100000F931F93482F50E0CA0182549E4FFC0149
:102110002491CA0188589E4FFC0104914E5C5E4F89
:10212000FA011491112319F420E030E015C02223A4
:1021300019F0822F0E94D90F812F90E0880F991FEC
:10214000885E9E4FFC01A591B4918C9120E030E017
:10215000802311F021E030E0C9011F910F91089513
:102160001F920F920FB60F920BB60F9211242F935E
:102170003F934F938F939F93EF93FF934091C600AC
:102180002091B11A3091B21A2F5F3F4F2F733070E8
:102190008091B31A9091B41A2817390759F0E09139
:1021A000B11AF091B21AEF58F54E40833093B21A3B
:1021B0002093B11AFF91EF919F918F914F913F9191
:1021C0002F910F900BBE0F900FBE0F901F90189580
:1021D0001F920F920FB60F920BB60F9211242F93EE
:1021E0003F934F938F939F93EF93FF934091CE0034
:1021F0002091391B30913A1B2F5F3F4F2F73307066
:1022000080913B1B90913C1B2817390759F0E091B6
:10221000391BF0913A1BE750F54E408330933A1B3F
:102220002093391BFF91EF919F918F914F913F9197
:102230002F910F900BBE0F900FBE0F901F9018950F
:102240001F920F920FB60F920BB60F9211242F937D
:102250003F934F938F939F93EF93FF934091D600BB
:102260002091C11B3091C21B2F5F3F4F2F733070E5
:102270008091C31B9091C41B2817390759F0E09136
:10228000C11BF091C21BEF57F44E40833093C21B29
:102290002093C11BFF91EF919F918F914F913F919F
:1022A0002F910F900BBE0F900FBE0F901F9018959F
:1022B0001F920F920FB60F920BB60F9211242F930D
:1022C0003F934F938F939F93EF93FF9340913601EA
:1022D0002091491C30914A1C2F5F3F4F2F73307063
:1022E00080914B1C90914C1C2817390759F0E091B4
:1022F000491CF0914A1CE75FF34E408330934A1C1F
:102300002093491CFF91EF919F918F914F913F91A5
:102310002F910F900BBE0F900FBE0F901F9018952E
:102320001F920F920FB60F920BB60F9211242F939C
:102330003F938F939F93EF93FF932091F51A3091E2
:10234000F61A8091F71A9091F81A2817390731F484
:102350008091C1008F7D8093C10014C0E091F71A75
:10236000F091F81AEB54F54E20818091F71A909174
:10237000F81A01968F7390709093F81A8093F71A59
:102380002093C600FF91EF919F918F913F912F91E4
:102390000F900BBE0F900FBE0F901F9018951F92BD
:1023A0000F920FB60F920BB60F9211242F933F93FB
:1023B0008F939F93EF93FF9320917D1B30917E1B12
:1023C00080917F1B9091801B2817390731F48091F1
:1023D000C9008F7D8093C90014C0E0917F1BF091EC
:1023E000801BE35CF44E208180917F1B9091801BC9
:1023F00001968F7390709093801B80937F1B209326
:10240000CE00FF91EF919F918F913F912F910F906F
:102410000BBE0F900FBE0F901F9018951F920F923A
:102420000FB60F920BB60F9211242F933F938F93F9
:102430009F93EF93FF932091051C3091061C809190
:10244000071C9091081C2817390731F48091D1009E
:102450008F7D8093D10014C0E091071CF091081C7F
:10246000EB53F44E20818091071C9091081C01963B
:102470008F7390709093081C8093071C2093D60054
:10248000FF91EF919F918F913F912F910F900BBEF4
:102490000F900FBE0F901F9018951F920F920FB6BE
:1024A0000F920BB60F9211242F933F938F939F930C
:1024B000EF93FF9320918D1C30918E1C80918F1C87
:1024C0009091901C2817390731F4809131018F7D4C
:1024D0008093310114C0E0918F1CF091901CE35B5C
:1024E000F34E208180918F1C9091901C01968F73E8
:1024F00090709093901C80938F1C20933601FF91D5
:10250000EF919F918F913F912F910F900BBE0F9064
:102510000FBE0F901F901895AF92BF92DF92EF926F
:10252000FF920F931F93CF93DF93EC017A018B01FE
:10253000DD24403081EE580780E0680780E07807AE
:1025400011F0DD24D39491E0A92EB12CEC89FD8902
:10255000DD2069F0C5010E8C02C0880F991F0A9416
:10256000E2F7808360E079E08DE390E005C01082BF
:1025700060E874E88EE190E0A80197010E940326CC
:10258000215030404040504056954795379527950B
:1025900080E12030380720F0DD2011F0DD24D6CF97
:1025A000E889F9893083EA89FB892083EE89FF89EC
:1025B000408121E030E0C9010A8C02C0880F991FD8
:1025C0000A94E2F7482B4083EE89FF894081C901D4
:1025D0000B8C02C0880F991F0A94E2F7482B4083A6
:1025E000EE89FF894081C9010C8C02C0880F991FB8
:1025F0000A94E2F7482B4083EE89FF8980810D8C95
:1026000002C0220F331F0A94E2F72095282320836B
:10261000DF91CF911F910F91FF90EF90DF90BF90CE
:10262000AF900895DC011C96ED91FC911D97E05C44
:10263000FF4F2191319180819181281B390B2F739C
:102640003070C9010895DC011C96ED91FC911D9735
:10265000E05CFF4F20813181E054F040DF01AE5B50
:10266000BF4F8D919C9111972817390719F42FEFBF
:102670003FEF07C08D919C91E80FF91F8081282FB3
:1026800030E0C9010895DC011C96ED91FC911D9785
:10269000E05CFF4F20813181E054F040DF01AE5B10
:1026A000BF4F8D919C9111972817390719F42FEF7F
:1026B0003FEF10C08D919C911197E80FF91F208179
:1026C0008D919C91119701968F73907011969C93A8
:1026D0008E9330E0C9010895FC0186859785DC0161
:1026E000A05CBF4FFC01EE5BFF4F2D913C91119719
:1026F0008081918128173907C1F70895CF93DF931F
:10270000EC01EE85FF85E05CFF4F20813181E054D4
:10271000F0402F5F3F4F2F733070DF01AE5BBF4F34
:102720008D919C91119728173907D1F3E05CFF4FE9
:1027300080819181E054F040E80FF91F6083EE85BD
:10274000FF85E05CFF4F31832083EE89FF89208184
:1027500081E090E00D8C02C0880F991F0A94E2F787
:10276000282B208381E090E0DF91CF9108951F9383
:102770001092941C1092931C28EE33E040E050E03D
:102780002093951C3093961C4093971C5093981C53
:102790006FE772E07093921C6093911C81E79AE15D
:1027A00090939E1C80939D1C85EB9AE19093A01CB6
:1027B00080939F1C85EC90E09093A21C8093A11CB9
:1027C00084EC90E09093A41C8093A31C80EC90E098
:1027D0009093A61C8093A51C81EC90E09093A81C7C
:1027E0008093A71C86EC90E09093AA1C8093A91C70
:1027F00014E01093AB1CB3E0B093AC1CA7E0A09323
:10280000AD1CF5E0F093AE1CE1E0E093AF1C10923C
:10281000B31C1092B21C2093B41C3093B51C40938F
:10282000B61C5093B71C7093B11C6093B01C89EF19
:102830009AE19093BD1C8093BC1C8DE39BE1909327
:10284000BF1C8093BE1C8DEC90E09093C11C8093C4
:10285000C01C8CEC90E09093C31C8093C21C88EC4D
:1028600090E09093C51C8093C41C89EC90E09093F9
:10287000C71C8093C61C8EEC90E09093C91C80937B
:10288000C81C1093CA1CB093CB1CA093CC1CF09313
:10289000CD1CE093CE1C1092D21C1092D11C209320
:1028A000D31C3093D41C4093D51C5093D61C7093EA
:1028B000D01C6093CF1C81E89BE19093DC1C80933B
:1028C000DB1C85EC9BE19093DE1C8093DD1C85ED89
:1028D00090E09093E01C8093DF1C84ED90E0909357
:1028E000E21C8093E11C80ED90E09093E41C8093C7
:1028F000E31C81ED90E09093E61C8093E51C86ED4F
:1029000090E09093E81C8093E71C1093E91CB0932F
:10291000EA1CA093EB1CF093EC1CE093ED1C1092CE
:10292000F11C1092F01C2093F21C3093F31C409386
:10293000F41C5093F51C7093EF1C6093EE1C89E01F
:102940009CE19093FB1C8093FA1C8DE49CE1909396
:10295000FD1C8093FC1C85E391E09093FF1C809309
:10296000FE1C84E391E09093011D8093001D80E3A1
:1029700091E09093031D8093021D81E391E0909379
:10298000051D8093041D86E391E09093071D8093BD
:10299000061D1093081DB093091DA0930A1DF09306
:1029A0000B1DE0930C1D1F9108950895CF92DF92A7
:1029B000EF92FF920F931F93CF93DF937C016B01F4
:1029C0008A01C0E0D0E00FC0D6016D916D01D70142
:1029D000ED91FC910190F081E02DC7011995C80F90
:1029E000D91F015010400115110571F7CE01DF917B
:1029F000CF911F910F91FF90EF90DF90CF900895AE
:102A0000EF92FF920F931F938C01DC01ED91FC91EB
:102A10000190F081E02D6DE019957C01D801ED91D8
:102A2000FC910190F081E02DC8016AE019959C01AC
:102A30002E0D3F1DC9011F910F91FF90EF9008953A
:102A4000CF93DF93DB010D900020E9F71197A61BD0
:102A5000B70BEC01E881F9810280F381E02DAD0133
:102A60001995DF91CF9108954F925F927F928F9247
:102A70009F92AF92BF92CF92DF92EF92FF920F930D
:102A80001F93DF93CF93CDB7DEB7A1970FB6F8941E
:102A9000DEBF0FBECDBF2C01742ECB01223008F457
:102AA0002AE019A231E2C32ED12CCC0EDD1E822EDB
:102AB0009924AA24BB24672D752FA50194010E9497
:102AC000032679018A01C801B701A50194010E947A
:102AD000BD25472D461B0894C108D1084A3014F47F
:102AE000405D01C0495CF6014083E114F104010539
:102AF000110521F07E2C5F2DC801DDCFC201B6018A
:102B00000E942015A1960FB6F894DEBF0FBECDBF70
:102B1000CF91DF911F910F91FF90EF90DF90CF90B9
:102B2000BF90AF909F908F907F905F904F9008954F
:102B3000CF92DF92EF92FF920F931F93CF93DF9389
:102B4000EC016A017B012115310541F4E881F9812D
:102B50000190F081E02D642F19951FC02A303105B6
:102B6000D1F477FF17C0E881F9810190F081E02D61
:102B70006DE219958C0144275527BA014C195D095E
:102B80006E097F09CE012AE00E9434159801280FB2
:102B9000391F04C02AE00E9434159C01C901DF914D
:102BA000CF911F910F91FF90EF90DF90CF900895FC
:102BB000EF92FF920F931F937B019A010027F7FC7E
:102BC0000095102FB801A7010E9498151F910F9131
:102BD000FF90EF900895CF92DF92EF92FF920F93C4
:102BE0001F936C017B019A010027F7FC0095102FC1
:102BF000B801A7010E9498158C01C6010E9400151A
:102C0000080F191FC8011F910F91FF90EF90DF90DF
:102C1000CF9008950E9420150895EF92FF920F9390
:102C20001F937C010E9420158C01C7010E94001592
:102C3000080F191FC8011F910F91FF90EF90089581
:102C4000FC01138212828FE892E091838083758366
:102C50006483578346837187608753874287158AC9
:102C6000158614861786168621E0248B8FEF9FEF3A
:102C7000938B828B918B808B268B08952F923F9222
:102C80004F925F926F927F928F929F92AF92BF927C
:102C9000CF92DF92EF92FF920F931F93DF93CF9328
:102CA00000D00F92CDB7DEB73C017C836B836A0105
:102CB0005901FA82E982222433249801241B350B1E
:102CC00037FF03C0309521953F4FC5014B815C8193
:102CD000841B950B97FF03C0909581959F4F82179A
:102CE00093075CF481E0282E312CC601CB80DC8078
:102CF0009C838B83C80185015C018B819C81A81614
:102D0000B90644F4C501AB80BC809C838B83C801A9
:102D100086016C012501AB81BC814A1A5B0A7801EE
:102D2000EC18FD08F7FE04C0F094E194F108F39468
:102D3000C016D10624F088248A94982C03C0B1E0F0
:102D40008B2E912CC20162E070E00E94F0258B0175
:102D500025C0D301ED91FC912114310441F0048090
:102D6000F581E02DC301B6014B815C8107C0048071
:102D7000F581E02DC3016B817C81A60129813A8117
:102D800019950E191F0917FF04C0C80CD91C040D92
:102D9000151DEB81FC813196FC83EB834B815C81BB
:102DA000A416B506B4F60F900F900F900F90CF9128
:102DB000DF911F910F91FF90EF90DF90CF90BF9028
:102DC000AF909F908F907F906F905F904F903F90CB
:102DD0002F9008954F925F926F927F928F929F9261
:102DE000AF92BF92CF92DF92EF92FF920F931F9319
:102DF0006C015B014A0139012801DC01ED91FC9174
:102E00000284F385E02D87011995D601ED91FC919F
:102E1000A40141505040440D551D0284F385E02D1E
:102E2000C601B50193011995D601ED91FC9100847D
:102E3000F185E02DC601B501A40192011995D601D5
:102E4000ED91FC910894A108B108A60CB71C008470
:102E5000F185E02DC601B501A401920119951F91DC
:102E60000F91FF90EF90DF90CF90BF90AF909F9029
:102E70008F907F906F905F904F900895CF92DF92E8
:102E8000EF92FF920F931F93DC016B017801ED919C
:102E9000FC918A0101501040020F131F0680F78138
:102EA000E02D960119951F910F91FF90EF90DF9003
:102EB000CF900895CF92DF92EF92FF920F931F93DE
:102EC000DC016A01C9017801ED91FC9111979B0128
:102ED00021503040280F391F0680F781E02DCD01A9
:102EE000860119951F910F91FF90EF90DF90CF9081
:102EF00008956F927F928F929F92AF92BF92CF92DE
:102F0000DF92EF92FF920F931F93CF93DF935C01B9
:102F10003A0169014801EB01C60ED71E0DC0D5016B
:102F2000ED91FC910084F185E02DC501BE01A30166
:102F30009401870119952196CC15DD0584F3DF9165
:102F4000CF911F910F91FF90EF90DF90CF90BF90A6
:102F5000AF909F908F907F906F900895EF92FF9227
:102F60000F931F93FC017B01A081B18120853185E6
:102F7000028513851E960D90BC91A02D60E070E037
:102F800040E050E0FD0119951F910F91FF90EF90E7
:102F900008952F923F924F925F926F927F928F92FD
:102FA0009F92AF92BF92CF92DF92EF92FF920F93D8
:102FB0001F93DF93CF93CDB7DEB72F970FB6F8945B
:102FC000DEBF0FBECDBF5C015E834D8318870F83CC
:102FD000FA86E986CB86DC0118968D919C9119972B
:102FE000681779070CF0A4C01A968D919C911B97D5
:102FF000481759070CF09CC0EC2DF0E0FF87EE87D6
:10300000CF01880F991F8E0F9F1F880F991F860F62
:10301000971F181619060CF08BC0CF01F3E0880F2C
:10302000991FFA95E1F7840F951F181619060CF0F1
:103030007FC085E0289FA00111245A8349832B017A
:103040001B011C825C81553011F480E005C0E981D0
:10305000FA81EC5FFD4F84912C863D866D807E80E9
:1030600043011B82C82EDD2480FF1CC0D501ED91D9
:10307000FC91BB85B13049F40480F581E02DC50198
:10308000B201A3012F81388522C00684F785E02D87
:10309000C5016C857D85A4012E853F858901EF8062
:1030A000F88423C0E985FA852F813885E217F30774
:1030B000E9F0D501ED91FC91BB85B13051F404806C
:1030C000F581E02DC501B201A30129853A85199545
:1030D0000DC00684F785E02DC5016C857D85A401B2
:1030E0002E853F858901E984FA841995EB81EF5F8C
:1030F000EB832E853F85820E931E0894611C711C04
:10310000E83021F0D594C7948C2DACCF3C813F5F43
:103110003C834E855F85240E351E0894411C511C4E
:1031200089819A8101969A838983363009F08ACF02
:103130002F960FB6F894DEBF0FBECDBFCF91DF91B3
:103140001F910F91FF90EF90DF90CF90BF90AF90C5
:103150009F908F907F906F905F904F903F902F90B7
:103160000895CF92EF92FF920F931F93CF93DF9327
:10317000EC01262F6A3061F42C8930E003E0220F45
:10318000331F0A95E1F78E859F85820F931F37C005
:103190006D30C9F16C857D854E855F8508891989FB
:1031A000EA88FB88CC880E94C9172C8986E0289F72
:1031B000B00111248C859D85680F791F7D876C87F0
:1031C0008E89882301F1422F50E08AEF9FEF9C0106
:1031D000429FC001439F900D529F900D112428855E
:1031E0003985820F931F861797076CF413E0440FFD
:1031F000551F1A95E1F78E859F85840F951F9F8730
:103200008E871D861C8681E090E0DF91CF911F9113
:103210000F91FF90EF90CF900895FC017587648720
:10322000578746870895FC01662309F461E0648BA3
:103230000895FC01738B628B718B608B08950895E8
:10324000DC0158968C915897882329F06EBD0DB4F7
:1032500007FEFDCF089530E840E050E070E0832F96
:1032600090E0862397235996ED91FC915A97969674
:103270002C919697892B21F08081822B808304C02A
:1032800080812095282320835B96ED91FC915C97AB
:10329000808197969C919797892B80835B96ED917F
:1032A000FC915C97908197968C9197978095892354
:1032B000808336954F5F5F4F4830510581F6089502
:1032C0000F931F938C01DC015F96ED91FC91909719
:1032D000908199968C9199978095892380835D96AA
:1032E000ED91FC915E97908198968C9180958923C1
:1032F0008083C8010E942019D8015D96ED91FC9150
:103300005E97808198969C91892B80831F910F9165
:1033100008950F931F938C01DC015F96ED91FC9152
:103320009097808199969C919997892B80835D963F
:10333000ED91FC915E97908198968C918095892370
:103340008083C8010E942019D8015D96ED91FC91FF
:103350005E97808198969C91892B80831F910F9115
:103360000895CF92DF92EF92FF920F931F937C010B
:10337000162FC42ED22E6AE20E946019C70160E0A7
:103380000E948919F70162A5610FC7010E9489197E
:10339000C70160E00E948919F70162A56D0DC701A0
:1033A0000E948919C7016BE20E946019C70160E0A1
:1033B0000E948919F70163A56C0DC7010E94891944
:1033C000C70160E00E948919F70163A5600FC7017A
:1033D0000E948919C7016CE20E9460191F910F9128
:1033E000FF90EF90DF90CF900895FF920F931F937F
:1033F000CF93DF93EC01F22E132F77FD2EC088853B
:103400009985681779074CF557FD27C08A859B85F4
:103410004817590714F5262F2F5F042F0F5FCE0191
:103420000E94B119EF8DF8A1808199A5892B808325
:10343000ED8DFE8D908188A5809589238083CE01B6
:10344000612F0E942019CE016F2D0E942019ED8D51
:10345000FE8D808198A5892B8083DF91CF911F916C
:103460000F91FF900895DF92EF92FF920F931F93B9
:10347000CF93DF93EC01FB017901D02E88859985EC
:1034800068177907D4F52A853B8542175307ACF5B1
:10349000C701840F951F281739071CF47901E41A16
:1034A000F50A042F01500E0DCE016E2F2E2F0E9413
:1034B000B119EF8DF8A1808199A5892B8083ED8DBD
:1034C000FE8D908188A580958923808308C0CE01D8
:1034D000612F0E942019CE016D2D0E9420190894A1
:1034E000E108F1088FEFE8168FEFF80681F7ED8D10
:1034F000FE8D808198A5892B8083DF91CF911F91CC
:103500000F91FF90EF90DF900895DF92EF92FF927E
:103510000F931F93CF93DF93EC01FA017901D02E23
:103520002885398562177307D4F58A859B854817E6
:103530005907ACF5C701860F971F281739071CF4E8
:103540007901E61AF70A262F21502E0DCE014E2FB3
:103550000E2F0E94B119EF8DF8A1808199A5892BBA
:103560008083ED8DFE8D908188A580958923808351
:1035700008C0CE01612F0E942019CE016D2D0E943E
:1035800020190894E108F1088FEFE8168FEFF8068C
:1035900081F7ED8DFE8D808198A5892B8083DF9149
:1035A000CF911F910F91FF90EF90DF900895EF92D0
:1035B000FF920F931F93FC017B01A081B1812085B5
:1035C0003185028513851E960D90BC91A02D60E07B
:1035D00070E040E050E0FD0119951F910F91FF90C0
:1035E000EF900895AF92BF92CF92DF92EF92FF9249
:1035F0000F931F93CF93DF936C015901E801DC0116
:1036000018962D913C911997621773070CF057C0CB
:103610001A96ED91FC911B974E175F070CF04FC067
:10362000C501860F971F281739071CF45901A61AE0
:10363000B70ACE01840F951FE817F9071CF4EF01B4
:10364000C41BD50B262F21502A0D042F01500C0F1F
:10365000C6010E94B119D6015F96ED91FC91909739
:10366000808199969C919997892B80835D96ED91A5
:10367000FC915E97908198968C91809589238083A8
:103680008E010EC0C6016F2D0E942019C6016E2D3D
:103690000E94201921971C161D06A4F3015010400A
:1036A0001016110614F4E501F6CFD6015D96ED91E2
:1036B000FC915E97808198969C91892B8083DF9105
:1036C000CF911F910F91FF90EF90DF90CF90BF901F
:1036D000AF900895662311F460E201C061E20E9498
:1036E00060190895AF92BF92CF92DF92EF92FF924E
:1036F0000F931F93CF93DF935C01FB01EB012196A6
:10370000D49031C08E010F5F1F4FFE016491C5013F
:103710000E94601978010894E11CF11CF801C49022
:103720000C2D0F77E701102F08C0FE012196E491C0
:10373000C5016E2F0E94891911501123B1F7E701BD
:10374000C00FD11DC7FE0EC0FE018491682F70E02E
:103750006F3F710511F464EF71E0219680E090E015
:103760000E94DF0EDA94DD2069F6DF91CF911F9180
:103770000F91FF90EF90DF90CF90BF90AF900895A2
:103780000F931F93CF93DF93EC018B011BA61AA617
:103790008AA161E00E949A0F89A161E00E949A0FBC
:1037A000E9A14E2F50E0FA01EE5CFE4FE491F0E00B
:1037B000EE0FFF1FE250FF4F859194919E8F8D8FEA
:1037C000EAA12E2F30E0F901EE5CFE4FE491F0E02B
:1037D000EE0FFF1FE250FF4F8591949198A38F8FBA
:1037E00048585E4FFA01849188A728583E4FF90146
:1037F000849189A7888D882361F00E94302580E01C
:103800000E941F2581E00E94112580E00E941A2558
:103810003DC08DA161E00E949A0F8CA161E00E94E1
:103820009A0FEDA14E2F50E0FA01EE5CFE4FE491AD
:10383000F0E0EE0FFF1FE250FF4FA591B491BC8F57
:10384000AB8FECA12E2F30E0F901EE5CFE4FE4913E
:10385000F0E0EE0FFF1FE250FF4F859194919A8F99
:10386000898F48585E4FFA0194919FA328583E4F84
:10387000F90184918EA38C91909598239C93E98D66
:10388000FA8D90818EA1809589238083ED8DFE8DA8
:10389000908188A58095892380838BA1882309F155
:1038A00061E00E949A0F8BA161E00E944D1064EFCD
:1038B00071E080E090E00E94DF0E8BA160E00E944A
:1038C0004D1064EF71E080E090E00E94DF0E8BA16C
:1038D00061E00E944D1064EF71E080E090E00E9492
:1038E000DF0E0115110521F0CE01B8010E94721BF7
:1038F000DF91CF911F910F9108951F93CF93DF9385
:10390000EC01162F6FEF76E00E94C01B112351F4DB
:10391000CE016AE377E00E94721B82E08AA781E011
:103920008BA705C0CE0167E477E00E94721BCE0131
:1039300064E577E00E94721B123041F4CE0166E329
:103940000E946019CE0160EC0E9489191F8BDF91E3
:10395000CF911F910895DF92EF92FF920F931F93E3
:103960008C01F62EE42ED22E60E870E040EA50E0A2
:103970000E94201687EA92E0F80191838083F1A2E9
:10398000E2A2D3A281E0808F15A214A21F910F9111
:10399000FF90EF90DF90089582E090E0A0E0B0E02B
:1039A00080930D1D90930E1DA0930F1DB093101DBD
:1039B0001092241D10922E1D10922D1D8FEB92E05F
:1039C00090932C1D80932B1D1092311D10924E1D33
:1039D00010924F1D1092521D1092541D0895382FB1
:1039E0008091581D8F3F29F43EBD0DB407FEFDCFD9
:1039F0000895F894A091591DB0915A1D50915B1DE6
:103A0000252F2095E0915C1DF0915D1D40915E1D7C
:103A1000642F609590E08C9182238C9337FF03C0D4
:103A20008081842B02C08081862380838C91852BAA
:103A30008C939F5F983011F0330FEDCF00000000A2
:103A4000000000008C9128232C9378940895809195
:103A5000581D8F3F21F40E94EF1C2EB530C0F89402
:103A6000E0915C1DF0915D1D808190915E1D892B20
:103A70008083E091591DF0915A1D60915B1DA091CA
:103A80005F1DB091601D8091611D482F50E0762F21
:103A9000709520E030E08081862B8083220F8C910E
:103AA00090E084239523892B09F02160808187236E
:103AB0008083000000003F5F383069F77894822FE0
:103AC00008950F931F93CF93DF938B010E94D10E24
:103AD000EB010E94271D8F3F11F481E008C00E9476
:103AE000D10E6C1B7D0B6017710798F380E0DF919E
:103AF000CF911F910F910895FC01848160E00E9495
:103B00004D100895FC01848161E00E944D100895DC
:103B1000CF92DF92EF92FF920F931F93CF93DF9399
:103B20007C016A01FC018485882319F40FEF1FEFE3
:103B300030C000E010E040E050E0212F332727FDA7
:103B40003A95F601E40FF51F808190E02827392788
:103B50003070C901F4E095958795FA95E1F78227D1
:103B60009327102F0027082719279C01322F22277F
:103B70003295307F0227132725E0880F991F2A9559
:103B8000E1F7082719274F5F5F4FF2E040305F07EA
:103B9000A1F6862F0E94EF1CC0E0D0E0F601EC0FEA
:103BA000FD1F80810E94EF1C219682E0C030D80763
:103BB000A9F7812F992787FD9A950E94EF1C802FE6
:103BC0000E94EF1C0E94271DF70182878F718530AC
:103BD00011F481E007C081E1F7018583C7010E94EC
:103BE000821D80E0DF91CF911F910F91FF90EF90A8
:103BF000DF90CF9008950F931F93CF93DF93EC0145
:103C00000E94D10E8B0109C00E94D10E601B710B66
:103C10006D52714010F08FE00AC00E94271D8A8704
:103C20008F3F91F38E3F11F481E006C08DE08D83CC
:103C3000CE010E94821D80E0DF91CF911F910F91F4
:103C40000895CF93DF93EC018E81882319F40FC080
:103C50000E94271D8F819885019698878F830197F1
:103C600082509240A8F3CE010E94821D1E82DF91F5
:103C7000CF910895DF92EF92FF920F931F93CF930E
:103C8000DF93EC01D62E79018A010E94211ECE011C
:103C90000E947C1DCE016CE271E00E94611D8D2DA1
:103CA00080640E94EF1C812F9927AA27BB270E94BE
:103CB000EF1CC801AA27BB270E94EF1CBB27A12F1E
:103CC000902F8F2D0E94EF1C8E2D0E94EF1CDD2067
:103CD00011F485E906C088E0D81611F487E801C020
:103CE0008FEF0E94EF1C10E00E94271D8A8787FF3C
:103CF00002C01150C9F7DF91CF911F910F91FF9032
:103D0000EF90DF900895CF92DF92EF92FF920F93A2
:103D10001F93CF93DF93EC017A018B016901411569
:103D200051056105710511F482E133C08B85833043
:103D300039F039E0EE0CFF1C001F111F3A95D1F746
:103D4000CE0168E1A80197010E943A1E882311F074
:103D500084E01FC0CE016EEFA6010E94881D88235B
:103D6000C9F0CE0168E572E00E94611D882311F45C
:103D700085E10FC0CE016DE020E030E040E050E092
:103D80000E943A1E882321F40E94271D882379F07F
:103D900084E18D83CE010E94821D80E0DF91CF916E
:103DA0001F910F91FF90EF90DF90CF900895CE017B
:103DB0000E94821D81E0F2CF6F927F928F929F923C
:103DC000AF92BF92CF92DF92EF92FF920F931F9329
:103DD000CF93DF93EC015A016B01390148010115C2
:103DE000110509F46AC0C801820F931F81509240E7
:103DF00008F05EC08E81882371F088819981AA8144
:103E0000BB81481759076A077B0729F48F8198857A
:103E10006816790650F5A882B982CA82DB828B8542
:103E2000833039F0E9E0AA0CBB1CCC1CDD1CEA9500
:103E3000D1F7CE0161E1A60195010E943A1E8823C7
:103E400019F083E08D8334C0CE010E94FB1D8823CE
:103E500079F118861F8281E08E8307C00E94271D9A
:103E60008F819885019698878F838F819885861595
:103E70009705A0F300E010E008C00E94271DF7019D
:103E8000E00FF11F80830F5F1F4F08151905A8F37E
:103E90002F813885280D391D38872F838985882300
:103EA00019F02050324048F0CE010E94211E05C07A
:103EB000CE010E94821D80E001C081E0DF91CF91A0
:103EC0001F910F91FF90EF90DF90CF90BF90AF9038
:103ED0009F908F907F906F900895EF92FF920F9335
:103EE0001F93790120E030E000E012E00E94DC1E28
:103EF0001F910F91FF90EF9008956F927F928F9294
:103F00009F92AF92BF92CF92DF92EF92FF920F9368
:103F10001F93CF93DF93EC017A018B012E81222333
:103F200009F480C08C899D89AE89BF898417950763
:103F3000A607B70708F476C085C0E114F1040105AF
:103F4000110549F41F82188619861A861B861C865D
:103F50001D861E8665C02B853C854D855E85EC8D56
:103F6000FD8D858590E009962150304040405040BD
:103F700039014A01082E04C0969487947794679477
:103F80000A94D2F72F5F3F4F4F4F5F4F0894E108DD
:103F9000F108010911095701680104C0D694C794BA
:103FA000B794A7948A95D2F70894E11CF11C011DDF
:103FB000111DA614B704C804D90428F02115310531
:103FC0004105510549F4888D998DAA8DBB8D8F834C
:103FD0009887A987BA8716C0A618B708C808D9084D
:103FE00011C04F81588569857A858C8D9D8D94018E
:103FF0000E948F230894A108B108C108D108882322
:1040000031F410C087E0882E912C8C0E9D1EA114D7
:10401000B104C104D10429F7EB86FC860D871E8705
:1040200081E001C080E0DF91CF911F910F91FF905F
:10403000EF90DF90CF90BF90AF909F908F907F9048
:104040006F900895223009F078CFE6CFCF93DF93B9
:10405000EC01462F6F85788989899A890E94B82258
:10406000882319F420E030E00AC08B89282F30E043
:1040700095E0220F331F9A95E1F72C59324EC90172
:10408000DF91CF9108950F931F93CF93DF938C010E
:10409000FC0186818823D9F1858187FF35C0C8015D
:1040A00061E00E942620EC01009789F1F8018681E9
:1040B000823040F484899589A689B7898C8F9D8F39
:1040C000AE8FBF8FF801808D918D9B8F8A8F808DF1
:1040D000918DA28DB38DCD01AA27BB279D8B8C8B93
:1040E000E091621DF091631D309751F0BE016A5E50
:1040F0007F4FCE0148961995888D998D9B8B8A8B21
:10410000F80185818F7785830E947D2201C080E040
:10411000DF91CF911F910F910895CF93DF93EC0121
:104120009C01295F3F4F8C8D9D8D41E050E060E008
:1041300070E00E9402248823A1F0888D998DAA8DB9
:10414000BB8D0097A105B10559F48F819885A9858C
:10415000BA85888F998FAA8FBB8F8D8180688D8358
:1041600081E0DF91CF9108952F923F924F925F921D
:104170007F928F929F92AF92BF92CF92DF92EF92F7
:10418000FF920F931F93DF93CF9300D000D0CDB752
:10419000DEB76C01162F072F5E834D83DC01169668
:1041A0008C911697813009F072C115968C9181FF20
:1041B0006EC18FC1F60144895589668977898385E7
:1041C0009485A585B68584179507A607B70731F0AE
:1041D000C6010E947D1F882309F459C1812F902FA9
:1041E0009C0129012D803E8019C1D6015C96ED917C
:1041F000FC915D97DA01C90119E0B695A7959795ED
:1042000087951A95D1F774807A9478227FEF872E5C
:1042100071E0972E82229322772009F050C08114FA
:10422000910409F04CC0D60117964D915D916D91A6
:104230007C911A97411551056105710581F45896D5
:104240008D919D910D90BC91A02D0097A105B10578
:1042500059F1F60187839087A187B28730C0CF01DB
:104260009E012F5F3F4F0E948F23882319F41E82E7
:104270001D8215C129813A814B815C81D6015C96F2
:10428000ED91FC915D978789803129F088EF9FEF50
:10429000AFEFBFE004C088EF9FEFA0E0B0E02817C9
:1042A00039074A075B0730F0C6010E948D2088233A
:1042B00031F4EDC0F601278330874187528780E0D3
:1042C00092E08819990951018215930508F45C015F
:1042D000D6015C96ED91FC915D971796ED90FD905F
:1042E0000D911C911A978EEF9FEFAFEFBFEFE80E85
:1042F000F91E0A1F1B1F058404C0EE0CFF1C001FC3
:10430000111F0A94D2F786859785A089B189E80E96
:10431000F91E0A1F1B1FE70CF11C011D111D90E067
:10432000A91692E0B90651F5809177029091780232
:10433000A0917902B0917A028E159F05A007B1076E
:1043400061F48FEF9FEFAFEFBFEF80937702909311
:104350007802A0937902B0937A028091641F9091C1
:10436000651FB801A70192010E94831E882309F4EA
:104370008EC0A0E0B2E04A0E5B1E3EC081149104E4
:1043800009F5F60123853485458556858489958907
:10439000A689B789281739074A075B0798F00E9452
:1043A0007D22882309F473C0E0927702F0927802AC
:1043B0000093790210937A028091661F8160809346
:1043C000661F08C0C801B70141E00E94B8228823D7
:1043D00009F45DC094012C59324EA9014A0D5B1DB0
:1043E000D201F90102C08D918193E417F507D9F745
:1043F000E21BF30B4E0E5F1E2A183B08950140E0AE
:1044000050E0F60183859485A585B685820F931FBC
:10441000A41FB51F83879487A587B687D6011B96EF
:104420002D913D914D915C911E972114310409F01D
:10443000DCCE54968D919D910D90BC91A02D82174C
:104440009307A407B50748F4F601248B358B468BF8
:10445000578B85818068858311C08091621D909102
:10446000631D892B59F08D819E81892B39F0D601EE
:1044700015968C911597806815968C93F601858119
:1044800083FF0DC0C6010E944320882341F481E0D0
:10449000D60114968C93EFEFFFEFFE83ED838D81B1
:1044A0009E8126960FB6F894DEBF0FBECDBFCF918A
:1044B000DF911F910F91FF90EF90DF90CF90BF9011
:1044C000AF909F908F907F905F904F903F902F90F4
:1044D000089582FD6FCE82CEDF93CF930F92CDB73A
:1044E000DEB76983BE016F5F7F4F41E050E00E94FD
:1044F000B4200F90CF91DF9108958091661F88239B
:1045000099F140917702509178026091790270910F
:104510007A028091641F9091651F24E63DE10E941C
:10452000831E882319F14091671F5091681F609185
:10453000691F70916A1F411551056105710591F060
:104540008091641F9091651F24E63DE10E94831EC7
:10455000882361F01092671F1092681F1092691FE4
:1045600010926A1F1092661F81E0089580E00895FE
:10457000DF92EF92FF920F931F937B018C01D42E59
:104580008091770290917802A0917902B0917A029D
:104590008E159F05A007B107C1F00E947D228823D8
:1045A000D9F08091641F9091651FB801A70124E69E
:1045B0003DE10E946D1F882379F0E0927702F0922E
:1045C00078020093790210937A028091661F8D29F8
:1045D0008093661F81E001C080E01F910F91FF90E2
:1045E000EF90DF9008954F925F926F927F928F923B
:1045F0009F92AF92BF92CF92DF92EF92FF920F9372
:104600001F93CF93DF93EC016A017B0128013901ED
:10461000423051056105710508F46FC089859A859E
:10462000AB85BC850196A11DB11D84179507A60712
:10463000B70708F462C02B893C894D895E898F8950
:10464000803129F499278F2D7E2D6D2D09C0C7014A
:10465000B60117E096958795779567951A95D1F7E6
:104660004B015C01820E931EA41EB51E8091770241
:1046700090917802A0917902B0917A0288169906F9
:10468000AA06BB0639F0C501B40140E00E94B82279
:10469000882399F18F89803149F4F601F070EE0F8B
:1046A000FF1FEC59F24E518240820DC0F601EF77A8
:1046B000F070EE0FFF1FEE0FFF1FEC59F24E40821D
:1046C0005182628273828091661F81608093661F2F
:1046D0008A89823080F08D819E81AF81B885880E75
:1046E000991EAA1EBB1E8092671F9092681FA092FF
:1046F000691FB0926A1F81E001C080E0DF91CF9115
:104700001F910F91FF90EF90DF90CF90BF90AF90EF
:104710009F908F907F906F905F904F900895CF9271
:10472000DF92EF92FF920F931F93CF93DF93EC01F1
:104730007A018B01690189859A85AB85BC850196D3
:10474000A11DB11D84179507A607B70708F450C02F
:104750002B893C894D895E898F89803129F499277D
:10476000812F702F6F2D09C0C801B701E7E0969522
:10477000879577956795EA95D1F7260F371F481FDC
:10478000591F8091770290917802A0917902B0919F
:104790007A02281739074A075B0739F0CA01B901BD
:1047A00040E00E94B822882319F18F89803159F4A2
:1047B000F701F070EE0FFF1FEC59F24E80819181EE
:1047C000A0E0B0E00EC0F701EF77F070EE0FFF1F32
:1047D000EE0FFF1FEC59F24E80819181A281B381CF
:1047E000BF70F60180839183A283B38381E001C00F
:1047F00080E0DF91CF911F910F91FF90EF90DF90BC
:10480000CF9008952F923F924F925F926F927F9236
:104810008F929F92AF92BF92CF92DF92EF92FF92D0
:104820000F931F93DF93CF93CDB7DEB72F970FB6BC
:10483000F894DEBF0FBECDBF1C014A875B876C8733
:104840007D873F872E87D9010D911D912D913C9138
:10485000011511052105310549F048015901089458
:10486000811C911CA11CB11C198610C0FC01808008
:104870009180A280B38019868A859B85AC85BD8591
:104880000197A105B10511F491E09987D10119961D
:104890008D919D910D90BC91A02D0196A11DB11DF2
:1048A0008D839E83AF83B8877501640144245524AA
:1048B00032018E010F5F1F4FF10181859285A38523
:1048C000B485481659066A067B0608F090C08D81AB
:1048D0009E81AF81B8858C159D05AE05BF0550F44E
:1048E00082E0882E912CA12CB12CB2E0CB2ED12CC1
:1048F000E12CF12CC101B701A60198010E948F2380
:10490000882309F474C089819A81AB81BC81A70195
:1049100096012F5F3F4F4F4F5F4F0097A105B105A5
:1049200019F049015A010DC0281939094A095B09D2
:104930008A859B85AC85BD85281739074A075B07A3
:1049400059F00894411C511C611C711C0894C11C35
:10495000D11CE11CF11CB0CFC101A601B7010FEFC2
:104960001FEF2FEF3FE00E94F322882399F43FC00E
:104970002601370108944108510861087108C101F6
:10498000B301A201970186010E94F322882379F1E5
:10499000730162018C149D04AE04BF0448F3AE851C
:1049A000BF854D915D916D917C91411551056105DA
:1049B000710539F0C101950184010E94F322882319
:1049C000B1F0EE85FF8580829182A282B382F98563
:1049D000FF2359F00894811C911CA11CB11CD1012A
:1049E0008D929D92AD92BC92139781E001C080E0C0
:1049F0002F960FB6F894DEBF0FBECDBFCF91DF91DB
:104A00001F910F91FF90EF90DF90CF90BF90AF90EC
:104A10009F908F907F906F905F904F903F902F90DE
:104A20000895882319F48CB5806202C08CB58F7DFF
:104A30008CBD08959CB5937F982B9CBD08952CB593
:104A4000382F33702C7F322B3CBD2DB590E09595DF
:104A500087959595879581702E7F822B8DBD0895C2
:104A600084E361E00E949A0F83E361E00E949A0F61
:104A700085E361E00E949A0F84E360E00E944D109C
:104A800083E360E00E944D1085E361E00E944D10D9
:104A90008CB580618CBD8CB580648CBD0895AF925F
:104AA000BF92CF92DF92EF92FF920F931F93CF931B
:104AB000DF93EC01A880B980CA80DB80A114B10427
:104AC000C104D10441F484E2A82E89EDB82E8BE50F
:104AD000C82E87E0D82EC601B5012DE133EF41E0A5
:104AE00050E00E94252627EA31E440E050E00E9491
:104AF000BD257B018C01C601B5012DE133EF41E0FD
:104B000050E00E942526CA01B9012CEE34EF4FEF88
:104B10005FEF0E94BD256E0D7F1D801F911F97FFC7
:104B200004C06150704080409048688379838A83D4
:104B30009B839B013F77C901DF91CF911F910F911B
:104B4000FF90EF90DF90CF90BF90AF9008950E94BC
:104B50004F25089580E792E00E944F250895A0E038
:104B6000B0E08093700290937102A0937202B093B0
:104B700073020895F8940C944626629FD001739FA7
:104B8000F001829FE00DF11D649FE00DF11D929FE9
:104B9000F00D839FF00D749FF00D659FF00D992728
:104BA000729FB00DE11DF91F639FB00DE11DF91F4C
:104BB000BD01CF0111240895AA1BBB1B51E107C001
:104BC000AA1FBB1FA617B70710F0A61BB70B881F9D
:104BD000991F5A95A9F780959095BC01CD0108952C
:104BE00097FB092E07260AD077FD04D0E5DF06D013
:104BF00000201AF4709561957F4F0895F6F790950F
:104C000081959F4F0895A1E21A2EAA1BBB1BFD019F
:104C10000DC0AA1FBB1FEE1FFF1FA217B307E4079B
:104C2000F50720F0A21BB30BE40BF50B661F771FF3
:104C3000881F991F1A9469F76095709580959095D3
:104C40009B01AC01BD01CF01089597FB092E0526FC
:104C50000ED057FD04D0D7DF0AD0001C38F4509591
:104C60004095309521953F4F4F4F5F4F0895F6F790
:104C700090958095709561957F4F8F4F9F4F0895C8
:104C8000EE0FFF1F0590F491E02D1994F894FFCFDB
:104C900053636F72653A200064656C61792000731C
:104CA000636F72653A0047414D45204F56455200AB
:104CB00053434F52453A20004E65772047616D655A
:104CC0003F00507265737320627574746F6E207448
:104CD0006F00436F6E74696E756500534E414B45AE
:104CE00000505245535320425554544F4E00544F98
:104CF00020434F4E54494E554500535441525400A1
:104D0000010000000B0001FFFFFFFF000000007E1C
:104D100013D6141213431323136C1300000000B1B5
:104D200018D614D5143E163E175A17EA167917AE40
:104D3000171F1900000000B118D614F5193E1633DC
:104D40001A851AEA16F21AD71A6A1B000000006CBC
:044D500022D6140053
:00000001FF
